:020000040800F2
:10000000080A0020CD010008E513000805110008CA
:10001000E113000837030008C118000800000000C1
:100020000000000000000000000000008116000831
:100030003D06000800000000E71300086D170008E7
:10004000E7010008E7010008E7010008E7010008F0
:10005000E7010008E7010008E7010008E7010008E0
:10006000E7010008E7010008E7010008E7010008D0
:10007000E7010008E7010008E7010008E7010008C0
:10008000E7010008E7010008E7010008E7010008B0
:10009000E7010008E7010008E7010008E7010008A0
:1000A000E7010008E7010008E7010008E701000890
:1000B000E7010008E7010008E7010008E701000880
:1000C000E7010008E7010008E7010008E701000870
:1000D000E7010008E7010008E7010008E701000860
:1000E000E7010008E7010008E7010008E701000850
:1000F000E7010008E7010008E7010008E701000840
:10010000E7010008E7010008E7010008E70100082F
:10011000E7010008E7010008E7010008E70100081F
:10012000E7010008E7010008E7010008E70100080F
:1001300000F002F800F03AF80AA090E8000C8244BF
:100140008344AAF10107DA4501D100F02FF8AFF29C
:10015000090EBAE80F0013F0010F18BFFB1A43F0A5
:10016000010318471419000034190000103A24BF85
:1001700078C878C1FAD8520724BF30C830C144BF0C
:1001800004680C607047000000230024002500264E
:10019000103A28BF78C1FBD8520728BF30C148BFEA
:1001A0000B6070471FB51FBD10B510BD00F08CF877
:1001B0001146FFF7F7FF01F0D3FB00F0AAF803B4F4
:1001C000FFF7F2FF03BC00F0AFF8000009488047DA
:1001D00009480047FEE7FEE7FEE7FEE7FEE7FEE729
:1001E000FEE7FEE7FEE7FEE704480549054A064B41
:1001F0007047000071170008310100080804002052
:10020000080A0020080600200806002030B5054630
:100210000B462A4613F8014B12F8010B08B1A04215
:10022000F8D01CB1002802D06D1CF1E7284630BD83
:100230004FF000020429C0F0128010F0030C00F00F
:100240001E80CCF1040CBCF1020F18BF00F8012B8A
:10025000A8BF20F8022BA1EB0C0100F010B85FEA58
:10026000C17C24BF00F8012B00F8012B48BF00F827
:10027000012B70477047704770474FF0000200B580
:10028000134694469646203922BFA0E80C50A0E8B9
:100290000C50B1F12001BFF4F7AF090728BFA0E867
:1002A0000C5048BF0CC05DF804EB890028BF40F833
:1002B000042B08BF704748BF20F8022B11F0804F75
:1002C00018BF00F8012B7047754600F029F8AE46BC
:1002D00005006946534620F00700854618B020B552
:1002E000FFF782FFBDE820404FF000064FF0000707
:1002F0004FF000084FF0000B21F00701AC46ACE8CE
:10030000C009ACE8C009ACE8C009ACE8C0098D463A
:1003100070470446AFF300802046FFF750FF00000F
:1003200000487047A803002001491820ABBEFEE733
:1003300026000200704700BFFEE721B1026842F0CC
:100340000102026004E002684FF6FE731A40026088
:100350007047000001684FF6FE72114001600021F5
:10036000016041608160C1604B49884208D14A49BF
:100370000839496841F00F01474A083A51608AE05C
:1003800045491431884208D143490839496841F048
:10039000F001414A083A51607DE03F4928318842E6
:1003A00008D13D490839496841F470613A4A083A30
:1003B000516070E038493C31884208D136490839EB
:1003C000496841F47041344A083A516063E0324967
:1003D0005031884208D130490839496841F47021C8
:1003E0002D4A083A516056E02B496431884208D1C1
:1003F00029490839496841F47001274A083A51608F
:1004000049E025497831884208D1234908394968AB
:1004100041F07061204A083A51603CE01F4988422F
:1004200006D1011F096841F00F01021F116032E07F
:100430001A491431884208D11849091F096841F046
:10044000F001164A121F116025E014492831884234
:1004500008D11249091F096841F470610F4A121F3F
:10046000116018E00D493C31884208D10B49091F41
:10047000096841F47041094A121F11600BE00749F5
:100480005031884207D10549091F096841F470219C
:10049000024A121F1160704708000240080402401F
:1004A00010B50022026847F6F0739A430C6A8B6815
:1004B00023430C6923434C6923438C692343CC6950
:1004C00023434C6A23438C6A23431A430260CB685C
:1004D00043600B6883604B68C36010BD4160704728
:1004E0002DE9F04180460D4616461F4627B300F021
:1004F00097FED02000F0D8FED8B9404600F0D4FED8
:1005000000F08EFED12000F0CFFE00240FE000F0BE
:1005100027FE2870701EA04203D1012000F0F4FDD8
:1005200002E0002000F0F0FD6D1C601CC4B2B4427B
:10053000EDDB00F09BFE14E000F072FED02000F036
:10054000B3FE60B9404600F0AFFE002405E0287815
:1005500000F0AAFE6D1C601CC4B2B442F7DB00F0D0
:1005600085FEBDE8F08100001CB50446E4B301231C
:10057000072269460020FFF7B3FF9DF8000000F056
:100580007F002B490861084600692A4909688842AA
:1005900007D00120284908602548006925490860DE
:1005A00002E00020244908609DF8010000F07F006F
:1005B0001F49C8609DF8020000F03F0088609DF868
:1005C000030000F00700C8709DF8040000F03F0031
:1005D00008719DF8050000F01F0088709DF8060066
:1005E00040F40050088022E0FFE71148007C8DF8BD
:1005F00000000F48007B8DF801000D48007A8DF84F
:1006000002000B48C0788DF80300094800798DF886
:100610000400074880788DF80500054800788DF8BB
:1006200006000023072269461846FFF759FF1CBD44
:100630006C03002008000020040000207047000028
:1006400010B5044621460448FFF7E0FD08B101203B
:1006500010BD0020FCE700008400002008B5012147
:100660002C2000F0D1FE0121084600F0CDFE012132
:10067000C80300F0C7F849F61F10ADF800000320CA
:100680008DF8020010208DF803006946144800F030
:100690002DF8B820ADF8000003208DF802001020DE
:1006A0008DF8030069460F4800F020F80720ADF8E8
:1006B000000003208DF8020048208DF803006946F1
:1006C000084800F013F80320ADF800008DF8020090
:1006D00010208DF803006946034800F007F808BDB4
:1006E00000080140000C0140001401402DE9F041D8
:1006F000024600250026002000230024002791F850
:1007000003C00CF00F0591F803C00CF0100CBCF105
:10071000000F03D091F802C04CEA050591F800C023
:10072000BCF1000F31D0146800202BE04FF0010C19
:100730000CFA00F3B1F800C00CEA03069E4220D187
:1007400083004FF00F0C0CFA03F7BC4305FA03FCCF
:100750004CEA040491F803C0BCF1280F06D14FF015
:10076000010C0CFA00FCC2F814C00AE091F803C0B6
:10077000BCF1480F05D14FF0010C0CFA00FCC2F897
:1007800010C0401C0828D1D31460B1F800C0BCF1DF
:10079000FF0F34DD546800202EE000F1080C4FF00C
:1007A000010808FA0CF3B1F800C00CEA03069E42F7
:1007B00021D183004FF00F0C0CFA03F7BC4305FA6C
:1007C00003FC4CEA040491F803C0BCF1280F05D1E6
:1007D00000F1080C08FA0CF8C2F8148091F803C074
:1007E000BCF1480F07D100F1080C4FF0010808FADE
:1007F0000CF8C2F81080401C0828CED35460BDE825
:10080000F0810000F0B50A460023002400210025F5
:1008100000F00046B6F1004F02D11D4EF16901E033
:100820001B4E7168C0F3034583B200F44016B6F561
:10083000401F08D121F07061154E766826F0706671
:10084000134F7E6012E000F48016B6F5801F06D1CB
:10085000032606FA05F4A14341F0706106E0460D57
:10086000360103FA06F6B14341F0706122B1460D3C
:10087000360103FA06F6314300F00046B6F1004FA8
:1008800002D1034EF16101E0014E7160F0BD000044
:10089000000001400246002093680B400BB101208C
:1008A00000E000207047416170470161704700001F
:1008B00010B5FEA0FFF7C4FE00284DD0FDA0FFF745
:1008C000BFFE0028F9D0FDA0FFF7BAFE0028F4D043
:1008D000F6A1FC48FFF79AFCFB4908600020FB49A1
:1008E000088025E0F8480068401CF7490860084681
:1008F000006800782C2804D1F5480078401CF449A1
:100900000870F348007806280DD10020F0490870DF
:10091000ED480068401CEC49086008460068007813
:10092000EC49087008E0E9480088401CE749088065
:10093000E64800882D28D5DB00BFE648007830283F
:100940000BD1E548007810B10020E4490870002080
:10095000E2494870E049087061E2DF480078401CD5
:10096000DD49087008460078FF2801D10220087090
:10097000D0A1D448FFF74AFCD34908600846006874
:10098000C01D08600020D149088010E0CE480068F2
:100990000178D348CD4A12888154CB480068401C66
:1009A000C9490860C9480088401CC8490880C74830
:1009B00000880628EADBCA484079C949C871084658
:1009C000007988713A2048710846C0780871084655
:1009D0008078C8703A208870BB480068401DBA49CA
:1009E00008600020B949088010E0B7480068007826
:1009F000BC49B64A12888854B3480068401CB249C2
:100A00000860B2480088401CB0490880AF480088A0
:100A10000A28EADBA5A1AB48FFF7F8FBAA49086062
:100A20000020AA4908803CE0A7480068401CA6496D
:100A300008600846006800782C2804D1A448007893
:100A4000401CA3490870A2480078022824D1002045
:100A50009F4908709C480068401C9B490860002022
:100A60009A49088010E09848006800789E49974AA3
:100A70001288885494480068401C93490860934841
:100A80000088401C91490880904800880C28EADBC7
:100A900000209549087308E08C480088401C8B4969
:100AA00008808A4800881428BEDB00BF864800689A
:100AB000401C8549086000208449088010E0824875
:100AC000006801788948814A128881547E4800680C
:100AD000401C7D4908607D480088401C7B49088097
:100AE0007A4800880D28EADB0020804908737648A0
:100AF0000068C01C7449086008460068007877499F
:100B0000087071480068401C6F490860084600681A
:100B100000787249487000206C49088070E06A488B
:100B20000068401C684908600846006800782C2866
:100B300004D167480078401C654908706448007813
:100B4000012858D10020624908705F480068401CA5
:100B50005D49086000205D49088027E05A48006828
:100B600000786349594A12888854084657490988C9
:100B7000405C2E2805D05E4854490988405C3028E6
:100B800005DB5B4851490988405C392804DD202198
:100B900057484E4A128881544B480068401C4A49C5
:100BA00008604A480088401C484908804748008837
:100BB0000728D3DB00204549088016E04C4843490C
:100BC0000988405C20280BD16D2149483F4A128892
:100BD0008154002102463D480088401C115408E021
:100BE0003A480088401C394908803848008807285E
:100BF000E4DB00BF08E035480088401C334908802A
:100C00003248008807288ADB00BF2CA12D48FFF757
:100C1000FDFA2D49086000202C49088035490880DC
:100C20002A4908801DE02848006800782C280ED149
:100C300030480088401C2F49088023480068401C29
:100C4000214908602B480088072805D10DE01E487F
:100C50000068401C1C4908601C480088401C1B4957
:100C600008801A4800885028DDDB00BF00201749A3
:100C7000088016E01448006800782C2800D114E0A1
:100C80001148006800781C49104A128888540E48A0
:100C90000068401C0C4908600C480088401C0B4947
:100CA00008800A4800880428E4DB27E024474E47F0
:100CB0004741000024474E5A4441000024474E5605
:100CC0005447000084000020480000204400002019
:100CD0004C0000204D0000204E0000205700002056
:100CE0004F00002080030020980300208B03002089
:100CF00059000020460000206000002000BF6B214A
:100D00004748484A12888154702102464548008865
:100D1000401C1154682143480088801C11544248EB
:100D2000407830384049097830390A2202FB010006
:100D30003E4908703C48007930383B49C978303921
:100D400002FB01003A4908703A4840783038394986
:100D50000978303902FB01003749087035480079BD
:100D600030383449C978303902FB01003349087002
:100D70003048807930384FF47A7148432D49C97929
:100D80003039642202FB01012A48007A30380A22F5
:100D900002FB00112748407A30380844284908806F
:100DA00028484078303827490978303901EB8101EB
:100DB00000EB410024490870224800782C2804D117
:100DC000204840783038087015E01E4840782C28BC
:100DD00005D11C48007830381B4908700BE01948D1
:100DE0004078303817490978303901EB810100EB40
:100DF000410015490870154800783038642148438F
:100E00001249497830390A2202FB01010F488078E3
:100E1000303808440E49088001200E49086010BD92
:100E200060000020440000204F0000206B000020E4
:100E30006A000020800300206F0000206E00002068
:100E40006C00002057000020700000205900002096
:100E5000720000207400002038B50446E07800904D
:100E6000A37862782178012000F068F8E07900909A
:100E7000A37962792179022000F060F8E07A00908D
:100E8000A37A627A217A032000F058F838BD000076
:100E9000012806D002280BD0032811D004281ED127
:100EA00016E001210F4A11600F4AC2F8881116E0BE
:100EB00001210C4A116000210B4AC2F888110EE092
:100EC0000021084A11600121074AC2F8881106E092
:100ED0000021044A1160044AC2F8881100BF00BF13
:100EE00070470000840121420000214200F0080107
:100EF0000E4A116000F004010D4AC2F8BC1100F066
:100F000002010C4A116000F00101121F116000F093
:100F10004001064A121D116000F02001064A1160CE
:100F200000F01001121D1160704700008C812142F9
:100F300000002142B0012142808122422DE9F0418E
:100F400004460D4616461F46DDF81880012C04D0D5
:100F5000022C44D0032C41D183E00120FFF798FFFD
:100F60002846FFF7C3FF002062490860012000F017
:100F7000CFFC01206049C1F89C010220FFF788FFE7
:100F80003046FFF7B3FF00205A490860012000F007
:100F9000BFFC01205849C1F89C010320FFF778FFEE
:100FA0003846FFF7A3FF002052490860012000F0F7
:100FB000AFFC01205049C1F89C010420FFF768FFF5
:100FC0004046FFF793FF00204B49C1F89C010120E8
:100FD00000F09EFC01204849C1F89C0186E00120F8
:100FE000FFF756FF2846FFF781FF002043490860BE
:100FF000012000F08DFC01204149C1F88001022050
:10100000FFF746FF3046FFF771FF00203B490860BD
:10101000012000F07DFC01203949C1F88001032046
:10102000FFF736FF3846FFF761FF002033490860BD
:10103000012000F06DFC01203149C1F8800104203D
:10104000FFF726FF4046FFF751FF00202C49C1F86B
:101050008001012000F05CFC01202949C1F88001D9
:1010600044E00120FFF714FF2846FFF73FFF002070
:1010700022490C310860012000F04AFC012020497F
:10108000C1F88C010220FFF703FF3046FFF72EFF67
:1010900000201A490C310860012000F039FC0120C1
:1010A0001749C1F88C010320FFF7F2FE3846FFF71D
:1010B0001DFF002011490C310860012000F028FCC0
:1010C00001200F49C1F88C010420FFF7E1FE4046E2
:1010D000FFF70CFF00200A49C1F88C01012000F045
:1010E00017FC01200649C1F88C0100BF00BFBDE814
:1010F000F08100009C812142008021428001214238
:101100000000214200BFFEE710B5044600F072F86F
:101110004FF400511148FFF7C6FB2CB14FF480414A
:101120000E48FFF7C2FB04E04FF480410B48FFF785
:10113000BAFB022000F0ECFB4FF400510748FFF728
:10114000B4FB022000F0E4FB4FF400510348FFF72A
:10115000AAFB022000F0DCFB10BD0000000C0140E7
:1011600070B500244FF480411748FFF79EFB00F054
:101170002DF800251EE06006040E022000F0C8FBDA
:101180004FF400511048FFF790FB022000F0C0FB25
:101190004FF480410C48FFF77DFB08B144F0010497
:1011A0004FF400510848FFF77EFB022000F0B0FB2F
:1011B000681CC5B2082DDEDB4FF400510248FFF772
:1011C00072FB204670BD0000000C014008B50121F3
:1011D000082000F019F94FF48040ADF80000042019
:1011E0008DF8030069460248FFF780FA08BD000049
:1011F000000C014008B50121082000F005F94FF46A
:101200008040ADF8000014208DF8030003208DF815
:10121000020069460148FFF769FA08BD000C014069
:1012200010B5FFF7E7FF4FF480410F48FFF73DFB94
:10123000022000F06DFB4FF400510B48FFF735FB27
:10124000022000F065FB4FF480410748FFF72BFBBD
:10125000022000F05DFB4FF400510348FFF723FB31
:10126000022000F055FB10BD000C014010B5FFF747
:10127000C1FF4FF480410B48FFF715FB022000F03F
:1012800047FB4FF400510748FFF70DFB022000F029
:101290003FFB4FF480410348FFF707FB022000F0BB
:1012A00037FB10BD000C014070B504460026FFF767
:1012B000A1FF002521E004F0800028B14FF4804117
:1012C0001E48FFF7F2FA04E04FF480411B48FFF795
:1012D000EAFA022000F01CFB4FF400511748FFF718
:1012E000E4FA022000F014FB4FF400511348FFF71A
:1012F000DAFA6006040E681CC5B2082DDBDB4FF479
:1013000080410E48FFF7D1FAFFF760FF022000F09E
:10131000FFFA4FF400510948FFF7C7FA022000F026
:10132000F7FA4FF480410548FFF7B4FA06434FF44B
:1013300000510248FFF7B7FA304670BD000C01407B
:101340002DE9F04107460D4616461C460121084688
:1013500000F04AF83846FEF7FDFF134804801348B2
:10136000056046600020114988600846C46000207E
:1013700008618020486100208861C86120200862DF
:10138000C0014862002088623846FFF789F80121D1
:10139000074800F089FA01213846FEF7CEFF0548DC
:1013A00000F00AF8BDE8F08124000020400300208E
:1013B000003801405800024010B504460021204684
:1013C000FEF7BBFF044801880448FFF787F80121B6
:1013D0002046FEF7B2FF10BD240000205800024056
:1013E00000BFFEE77047704729B1064A52690243C1
:1013F000044B5A6104E0034A52698243014B5A612B
:10140000704700000010024029B1064A9269024369
:10141000044B9A6104E0034A92698243014B9A614A
:10142000704700000010024010B500F029F80120BC
:1014300000F0E8F800BF212000F0B2F80028FAD050
:10144000002000F0D3F84FF4806000F0E1F80020B5
:1014500000F0EAF80021084600F0F8F8012000F05A
:10146000EFF800BF392000F09BF80028FAD00220E6
:1014700000F0FAF800BF00F0B1F80828FBD110BD69
:101480000F48006840F001000D49086008464068B8
:101490000C4908400A494860084600680A49084063
:1014A000074908600846006820F480200860084664
:1014B000406820F4FE0048604FF41F0088607047C9
:1014C000001002400000FFF8FFFFF6FE30B50021DB
:1014D0000022002400232D4D6D6805F00C0121B180
:1014E000042905D0082923D105E0294D056022E013
:1014F000274D05601FE0254D6D6805F47012234DE2
:101500006D6805F48034022505EB92421CB9214D2B
:10151000554305600BE01D4D6D6805F400351DB1A8
:101520001C4D5543056002E0194D5543056002E02E
:10153000174D056000BF00BF144D6D6805F0F00148
:101540000909154D6B5C0568DD4045600F4D6D6800
:1015500005F4E061090A104D6B5C4568DD4085606B
:101560000A4D6D6805F46051C90A0B4D6B5C456806
:10157000DD40C560054D6D6805F44041890B074DA0
:101580006B5CC568B5FBF3F5056130BD001002402A
:1015900000127A0000093D00100000202000002009
:1015A00010B501460022002300204A11012A02D171
:1015B000094C236806E0022A02D1074C236A01E0A5
:1015C000054C636A01F01F02012494401C400CB1D9
:1015D000012000E0002010BD0010024002484068D9
:1015E00000F00C007047000000100240014600208F
:1015F000034A506820F0F000084350607047000034
:10160000001002400149086070470000000042429B
:1016100001460020034A506820F4E060084350600F
:10162000704700000010024001460020034A506845
:1016300020F4605040EAC100506070470010024042
:10164000014908667047000000004242024600203F
:10165000044B586820F47C1042EA01031843014B04
:10166000586070470010024001460020034A50684D
:1016700020F0030008435060704700000010024053
:10168000704710B500F002F810BD00000CB5002046
:10169000019000903348006840F480303149086080
:1016A00000BF3048006800F4003000900198401CF2
:1016B0000190009818B90198B0F5A06FF1D12948B0
:1016C000006800F4003010B10120009001E000201B
:1016D00000900098012843D12348006840F0100092
:1016E000214908600846006820F0030008600846A9
:1016F000006840F0020008601A48406819494860D4
:101700000846406848600846406840F48060486089
:101710000846406820F47C1048600846406840F461
:10172000E81048600846006840F08070086000BF1C
:101730000C48006800F000700028F9D009484068A3
:1017400020F00300074948600846406840F0020066
:10175000486000BF0348406800F00C000828F9D139
:101760000CBD000000100240002002407047000045
:1017700010B51348006840F00100114908600846A0
:101780004068104908400E494860084600680E4904
:1017900008400B4908600846006820F48020086073
:1017A0000846406820F4FE0048604FF41F0088603F
:1017B000FFF767FF4FF000600449086010BD0000AC
:1017C000001002400000FFF8FFFFF6FE08ED00E009
:1017D00010B50120FEF7C8FE3048008A302101EB29
:1017E00020102F4988712D48007C00F00F00303008
:1017F000C8712A488089302101EB20102849C8701F
:101800002648007B00F00F00303008712348008923
:10181000302101EB2010224908702048007A00F0A6
:101820000F00303048701D480079302101EB201046
:101830001C4908721948007900F00F0030304872D6
:1018400016488078302101EB201016494871134862
:10185000807800F00F003030887110480088302107
:1018600001EB20300F4908700C480088C0F30320BA
:101870003030487009480088302101EB20100949B8
:1018800088700648007800F00F003030C8700348B8
:10189000C07800F00F003030C87210BD6C0300201B
:1018A000260000202E00002021B1828942F400523F
:1018B000828104E082894DF6FF731A40828170476D
:1018C00000BFFEE70146114A12884A434FF0E02369
:1018D0005A6100229A611A46126942F001021A61A5
:1018E00000BF4FF0E022106900F001021AB100F4CD
:1018F0008032002AF5D04FF0E022126922F0010276
:101900004FF0E0231A6100229A6170470E00002018
:101910000146114A12784A434FF0E0235A610022EF
:101920009A611A46126942F001021A6100BF4FF033
:10193000E022106900F001021AB100F48032002A9E
:10194000F5D04FF0E022126922F001024FF0E023BF
:101950001A6100229A6170470C000020704770479E
:1019600086B000F057F801A8FFF7B0FD42F2190069
:1019700022490880032088700220C8701220087154
:10198000202088604620C860552008614FF42F73DE
:101990001B4A1C491C48FFF7D3FCFFF719FF2CE03A
:1019A0001A480078082810D2DFE800F00F04070A70
:1019B0000B0C0D0EFFF7D3FF07E0FFF7CFFF04E09E
:1019C00003E002E001E000E000BF00BFFFF700FF1E
:1019D00000F030F80E48FFF73FFA0948007860B190
:1019E000A020FFF76FFFFEF763FF4FF42F7104484D
:1019F000FEF71EFC0448FFF7DFFCD1E76C03002074
:101A000084000020043801405800024001000020FA
:101A10007800002010B5FFF707FD01210846FFF709
:101A2000F3FC01210248FEF7EDFEFEF717FE10BDA4
:101A30000002300020200E49087048700D480078E0
:101A400088700C484078C8703A2008710948C078FE
:101A500048710848007988713A20C8710548807932
:101A600008720448C079487220208872C872704792
:101A70007800002026000020981A000800000020AE
:101A8000780000006C010008101B0008780000209E
:101A9000900900008801000800010000000000001B
:101AA000000000000000000000000000010203042C
:101AB000010203040607080902040608BC023030CC
:101AC0003A30303A3030323031332F31302F3230FB
:101AD0002037570000000000000000000000000058
:101AE00000000000000000000000000000000000F6
:101AF00000000000000000000000000000000000E6
:101B000000000000000000000000000000000000D5
:04000005080001CD21
:00000001FF
